{
  "contractName": "MintifyMarket",
  "abi": [
    {
      "inputs": [],
      "stateMutability": "nonpayable",
      "type": "constructor"
    },
    {
      "anonymous": false,
      "inputs": [
        {
          "indexed": true,
          "internalType": "uint256",
          "name": "itemId",
          "type": "uint256"
        },
        {
          "indexed": true,
          "internalType": "address",
          "name": "nftContract",
          "type": "address"
        },
        {
          "indexed": true,
          "internalType": "uint256",
          "name": "tokenId",
          "type": "uint256"
        },
        {
          "indexed": false,
          "internalType": "address",
          "name": "seller",
          "type": "address"
        },
        {
          "indexed": false,
          "internalType": "address",
          "name": "owner",
          "type": "address"
        },
        {
          "indexed": false,
          "internalType": "uint256",
          "name": "price",
          "type": "uint256"
        }
      ],
      "name": "MarketItemCreated",
      "type": "event"
    },
    {
      "anonymous": false,
      "inputs": [
        {
          "indexed": false,
          "internalType": "address",
          "name": "from",
          "type": "address"
        },
        {
          "indexed": false,
          "internalType": "uint256",
          "name": "tokenId",
          "type": "uint256"
        }
      ],
      "name": "Message",
      "type": "event"
    },
    {
      "inputs": [
        {
          "internalType": "uint256",
          "name": "marketItemId",
          "type": "uint256"
        }
      ],
      "name": "getMarketItem",
      "outputs": [
        {
          "components": [
            {
              "internalType": "uint256",
              "name": "itemId",
              "type": "uint256"
            },
            {
              "internalType": "address",
              "name": "nftContract",
              "type": "address"
            },
            {
              "internalType": "uint256",
              "name": "tokenId",
              "type": "uint256"
            },
            {
              "internalType": "address payable",
              "name": "seller",
              "type": "address"
            },
            {
              "internalType": "address payable",
              "name": "owner",
              "type": "address"
            },
            {
              "internalType": "uint256",
              "name": "price",
              "type": "uint256"
            }
          ],
          "internalType": "struct MintifyMarket.MarketItem",
          "name": "",
          "type": "tuple"
        }
      ],
      "stateMutability": "view",
      "type": "function"
    },
    {
      "inputs": [
        {
          "internalType": "address",
          "name": "nftContract",
          "type": "address"
        },
        {
          "internalType": "uint256",
          "name": "tokenId",
          "type": "uint256"
        },
        {
          "internalType": "uint256",
          "name": "price",
          "type": "uint256"
        }
      ],
      "name": "createMarketItem",
      "outputs": [],
      "stateMutability": "payable",
      "type": "function"
    },
    {
      "inputs": [
        {
          "internalType": "address",
          "name": "nftContract",
          "type": "address"
        },
        {
          "internalType": "uint256",
          "name": "itemId",
          "type": "uint256"
        }
      ],
      "name": "createMarketSale",
      "outputs": [],
      "stateMutability": "payable",
      "type": "function"
    },
    {
      "inputs": [],
      "name": "fetchMarketItems",
      "outputs": [
        {
          "components": [
            {
              "internalType": "uint256",
              "name": "itemId",
              "type": "uint256"
            },
            {
              "internalType": "address",
              "name": "nftContract",
              "type": "address"
            },
            {
              "internalType": "uint256",
              "name": "tokenId",
              "type": "uint256"
            },
            {
              "internalType": "address payable",
              "name": "seller",
              "type": "address"
            },
            {
              "internalType": "address payable",
              "name": "owner",
              "type": "address"
            },
            {
              "internalType": "uint256",
              "name": "price",
              "type": "uint256"
            }
          ],
          "internalType": "struct MintifyMarket.MarketItem[]",
          "name": "",
          "type": "tuple[]"
        }
      ],
      "stateMutability": "view",
      "type": "function"
    },
    {
      "inputs": [],
      "name": "fetchMyNFTs",
      "outputs": [
        {
          "components": [
            {
              "internalType": "uint256",
              "name": "itemId",
              "type": "uint256"
            },
            {
              "internalType": "address",
              "name": "nftContract",
              "type": "address"
            },
            {
              "internalType": "uint256",
              "name": "tokenId",
              "type": "uint256"
            },
            {
              "internalType": "address payable",
              "name": "seller",
              "type": "address"
            },
            {
              "internalType": "address payable",
              "name": "owner",
              "type": "address"
            },
            {
              "internalType": "uint256",
              "name": "price",
              "type": "uint256"
            }
          ],
          "internalType": "struct MintifyMarket.MarketItem[]",
          "name": "",
          "type": "tuple[]"
        }
      ],
      "stateMutability": "view",
      "type": "function"
    }
  ],
  "bytecode": "0x608060405267016345785d8a000060045534801561001c57600080fd5b50600160008190555033600360006101000a81548173ffffffffffffffffffffffffffffffffffffffff021916908373ffffffffffffffffffffffffffffffffffffffff16021790555061159f806100756000396000f3fe60806040526004361061004a5760003560e01c80630f08efe01461004f578063202e37401461007a57806358eb2df5146100a5578063c23b139e146100c1578063c7be7a49146100dd575b600080fd5b34801561005b57600080fd5b5061006461011a565b604051610071919061103c565b60405180910390f35b34801561008657600080fd5b5061008f6103c8565b60405161009c919061103c565b60405180910390f35b6100bf60048036038101906100ba91906110bb565b6106f9565b005b6100db60048036038101906100d6919061110e565b610a25565b005b3480156100e957600080fd5b5061010460048036038101906100ff919061114e565b610cae565b60405161011191906111f6565b60405180910390f35b606060006101286001610dfb565b905060006101366002610dfb565b6101406001610dfb565b61014a9190611240565b90506000808267ffffffffffffffff81111561016957610168611274565b5b6040519080825280602002602001820160405280156101a257816020015b61018f610e1f565b8152602001906001900390816101875790505b50905060005b848110156103bd57600073ffffffffffffffffffffffffffffffffffffffff16600560006001846101d991906112a3565b815260200190815260200160002060040160009054906101000a900473ffffffffffffffffffffffffffffffffffffffff1673ffffffffffffffffffffffffffffffffffffffff16036103aa57600060018261023591906112a3565b90506000600560008381526020019081526020016000209050806040518060c0016040529081600082015481526020016001820160009054906101000a900473ffffffffffffffffffffffffffffffffffffffff1673ffffffffffffffffffffffffffffffffffffffff1673ffffffffffffffffffffffffffffffffffffffff168152602001600282015481526020016003820160009054906101000a900473ffffffffffffffffffffffffffffffffffffffff1673ffffffffffffffffffffffffffffffffffffffff1673ffffffffffffffffffffffffffffffffffffffff1681526020016004820160009054906101000a900473ffffffffffffffffffffffffffffffffffffffff1673ffffffffffffffffffffffffffffffffffffffff1673ffffffffffffffffffffffffffffffffffffffff16815260200160058201548152505084868151811061038d5761038c6112f9565b5b60200260200101819052506001856103a591906112a3565b945050505b80806103b590611328565b9150506101a8565b508094505050505090565b606060006103d66001610dfb565b905060008060005b8381101561047e573373ffffffffffffffffffffffffffffffffffffffff166005600060018461040e91906112a3565b815260200190815260200160002060040160009054906101000a900473ffffffffffffffffffffffffffffffffffffffff1673ffffffffffffffffffffffffffffffffffffffff160361046b5760018361046891906112a3565b92505b808061047690611328565b9150506103de565b5060008267ffffffffffffffff81111561049b5761049a611274565b5b6040519080825280602002602001820160405280156104d457816020015b6104c1610e1f565b8152602001906001900390816104b95790505b50905060005b848110156106ee573373ffffffffffffffffffffffffffffffffffffffff166005600060018461050a91906112a3565b815260200190815260200160002060040160009054906101000a900473ffffffffffffffffffffffffffffffffffffffff1673ffffffffffffffffffffffffffffffffffffffff16036106db57600060018261056691906112a3565b90506000600560008381526020019081526020016000209050806040518060c0016040529081600082015481526020016001820160009054906101000a900473ffffffffffffffffffffffffffffffffffffffff1673ffffffffffffffffffffffffffffffffffffffff1673ffffffffffffffffffffffffffffffffffffffff168152602001600282015481526020016003820160009054906101000a900473ffffffffffffffffffffffffffffffffffffffff1673ffffffffffffffffffffffffffffffffffffffff1673ffffffffffffffffffffffffffffffffffffffff1681526020016004820160009054906101000a900473ffffffffffffffffffffffffffffffffffffffff1673ffffffffffffffffffffffffffffffffffffffff1673ffffffffffffffffffffffffffffffffffffffff1681526020016005820154815250508486815181106106be576106bd6112f9565b5b60200260200101819052506001856106d691906112a3565b945050505b80806106e690611328565b9150506104da565b508094505050505090565b60026000540361073e576040517f08c379a0000000000000000000000000000000000000000000000000000000008152600401610735906113cd565b60405180910390fd5b600260008190555060008111610789576040517f08c379a000000000000000000000000000000000000000000000000000000000815260040161078090611439565b60405180910390fd5b7fd6896bf6b58a373f3507be627a6c1665b85853a848393258c850171275e5016d33836040516107ba929190611477565b60405180910390a16107cc6001610e09565b60006107d86001610dfb565b90508373ffffffffffffffffffffffffffffffffffffffff166323b872dd3330866040518463ffffffff1660e01b8152600401610817939291906114a0565b600060405180830381600087803b15801561083157600080fd5b505af1158015610845573d6000803e3d6000fd5b505050506040518060c001604052808281526020018573ffffffffffffffffffffffffffffffffffffffff1681526020018481526020013373ffffffffffffffffffffffffffffffffffffffff168152602001600073ffffffffffffffffffffffffffffffffffffffff16815260200183815250600560008381526020019081526020016000206000820151816000015560208201518160010160006101000a81548173ffffffffffffffffffffffffffffffffffffffff021916908373ffffffffffffffffffffffffffffffffffffffff1602179055506040820151816002015560608201518160030160006101000a81548173ffffffffffffffffffffffffffffffffffffffff021916908373ffffffffffffffffffffffffffffffffffffffff16021790555060808201518160040160006101000a81548173ffffffffffffffffffffffffffffffffffffffff021916908373ffffffffffffffffffffffffffffffffffffffff16021790555060a08201518160050155905050828473ffffffffffffffffffffffffffffffffffffffff16827f2ad024d53a0dc50c130967f8d4941927ee087ea31394cebb2b9599d3706c9c0033600087604051610a0f939291906114a0565b60405180910390a4506001600081905550505050565b600260005403610a6a576040517f08c379a0000000000000000000000000000000000000000000000000000000008152600401610a61906113cd565b60405180910390fd5b6002600081905550600060056000838152602001908152602001600020600501549050600060056000848152602001908152602001600020600201549050813414610aea576040517f08c379a0000000000000000000000000000000000000000000000000000000008152600401610ae190611549565b60405180910390fd5b6005600084815260200190815260200160002060030160009054906101000a900473ffffffffffffffffffffffffffffffffffffffff1673ffffffffffffffffffffffffffffffffffffffff166108fc349081150290604051600060405180830381858888f19350505050158015610b66573d6000803e3d6000fd5b508373ffffffffffffffffffffffffffffffffffffffff166323b872dd3033846040518463ffffffff1660e01b8152600401610ba4939291906114a0565b600060405180830381600087803b158015610bbe57600080fd5b505af1158015610bd2573d6000803e3d6000fd5b50505050336005600085815260200190815260200160002060040160006101000a81548173ffffffffffffffffffffffffffffffffffffffff021916908373ffffffffffffffffffffffffffffffffffffffff160217905550610c356002610e09565b600360009054906101000a900473ffffffffffffffffffffffffffffffffffffffff1673ffffffffffffffffffffffffffffffffffffffff166108fc6004549081150290604051600060405180830381858888f19350505050158015610c9f573d6000803e3d6000fd5b50505060016000819055505050565b610cb6610e1f565b600560008381526020019081526020016000206040518060c0016040529081600082015481526020016001820160009054906101000a900473ffffffffffffffffffffffffffffffffffffffff1673ffffffffffffffffffffffffffffffffffffffff1673ffffffffffffffffffffffffffffffffffffffff168152602001600282015481526020016003820160009054906101000a900473ffffffffffffffffffffffffffffffffffffffff1673ffffffffffffffffffffffffffffffffffffffff1673ffffffffffffffffffffffffffffffffffffffff1681526020016004820160009054906101000a900473ffffffffffffffffffffffffffffffffffffffff1673ffffffffffffffffffffffffffffffffffffffff1673ffffffffffffffffffffffffffffffffffffffff1681526020016005820154815250509050919050565b600081600001549050919050565b6001816000016000828254019250508190555050565b6040518060c0016040528060008152602001600073ffffffffffffffffffffffffffffffffffffffff16815260200160008152602001600073ffffffffffffffffffffffffffffffffffffffff168152602001600073ffffffffffffffffffffffffffffffffffffffff168152602001600081525090565b600081519050919050565b600082825260208201905092915050565b6000819050602082019050919050565b6000819050919050565b610ed681610ec3565b82525050565b600073ffffffffffffffffffffffffffffffffffffffff82169050919050565b6000610f0782610edc565b9050919050565b610f1781610efc565b82525050565b6000610f2882610edc565b9050919050565b610f3881610f1d565b82525050565b60c082016000820151610f546000850182610ecd565b506020820151610f676020850182610f0e565b506040820151610f7a6040850182610ecd565b506060820151610f8d6060850182610f2f565b506080820151610fa06080850182610f2f565b5060a0820151610fb360a0850182610ecd565b50505050565b6000610fc58383610f3e565b60c08301905092915050565b6000602082019050919050565b6000610fe982610e97565b610ff38185610ea2565b9350610ffe83610eb3565b8060005b8381101561102f5781516110168882610fb9565b975061102183610fd1565b925050600181019050611002565b5085935050505092915050565b600060208201905081810360008301526110568184610fde565b905092915050565b600080fd5b61106c81610efc565b811461107757600080fd5b50565b60008135905061108981611063565b92915050565b61109881610ec3565b81146110a357600080fd5b50565b6000813590506110b58161108f565b92915050565b6000806000606084860312156110d4576110d361105e565b5b60006110e28682870161107a565b93505060206110f3868287016110a6565b9250506040611104868287016110a6565b9150509250925092565b600080604083850312156111255761112461105e565b5b60006111338582860161107a565b9250506020611144858286016110a6565b9150509250929050565b6000602082840312156111645761116361105e565b5b6000611172848285016110a6565b91505092915050565b60c0820160008201516111916000850182610ecd565b5060208201516111a46020850182610f0e565b5060408201516111b76040850182610ecd565b5060608201516111ca6060850182610f2f565b5060808201516111dd6080850182610f2f565b5060a08201516111f060a0850182610ecd565b50505050565b600060c08201905061120b600083018461117b565b92915050565b7f4e487b7100000000000000000000000000000000000000000000000000000000600052601160045260246000fd5b600061124b82610ec3565b915061125683610ec3565b92508282101561126957611268611211565b5b828203905092915050565b7f4e487b7100000000000000000000000000000000000000000000000000000000600052604160045260246000fd5b60006112ae82610ec3565b91506112b983610ec3565b9250827fffffffffffffffffffffffffffffffffffffffffffffffffffffffffffffffff038211156112ee576112ed611211565b5b828201905092915050565b7f4e487b7100000000000000000000000000000000000000000000000000000000600052603260045260246000fd5b600061133382610ec3565b91507fffffffffffffffffffffffffffffffffffffffffffffffffffffffffffffffff820361136557611364611211565b5b600182019050919050565b600082825260208201905092915050565b7f5265656e7472616e637947756172643a207265656e7472616e742063616c6c00600082015250565b60006113b7601f83611370565b91506113c282611381565b602082019050919050565b600060208201905081810360008301526113e6816113aa565b9050919050565b7f5072696365206d757374206265206174206c6561737420312077656900000000600082015250565b6000611423601c83611370565b915061142e826113ed565b602082019050919050565b6000602082019050818103600083015261145281611416565b9050919050565b61146281610efc565b82525050565b61147181610ec3565b82525050565b600060408201905061148c6000830185611459565b6114996020830184611468565b9392505050565b60006060820190506114b56000830186611459565b6114c26020830185611459565b6114cf6040830184611468565b949350505050565b7f506c65617365207375626d6974207468652061736b696e67207072696365206960008201527f6e206f7264657220746f20636f6d706c65746520746865207075726368617365602082015250565b6000611533604083611370565b915061153e826114d7565b604082019050919050565b6000602082019050818103600083015261156281611526565b905091905056fea26469706673582212205ce2e45053ebfdb8f3fce60c69e887b40b1d316bb46c22fb806ab394b12cd16164736f6c634300080e0033",
  "immutableReferences": {},
  "source": "pragma solidity ^0.8.0;\n\nimport \"@openzeppelin/contracts/utils/Counters.sol\";\nimport \"@openzeppelin/contracts/token/ERC721/extensions/ERC721URIStorage.sol\";\nimport \"@openzeppelin/contracts/security/ReentrancyGuard.sol\";\nimport \"@openzeppelin/contracts/token/ERC721/ERC721.sol\";\n\ncontract Mintify is ERC721URIStorage {\n    using Counters for Counters.Counter;\n    Counters.Counter private _tokenIds;\n    address contractAddress;\n\n    constructor() ERC721(\"Mintify\", \"MINTIFY\") {\n    }\n\n    function createToken(address marketplaceAddress, string memory tokenURI) public returns (uint) {\n        contractAddress = marketplaceAddress;\n        _tokenIds.increment();\n        uint256 newItemId = _tokenIds.current();\n\n        _mint(msg.sender, newItemId);\n        _setTokenURI(newItemId, tokenURI);\n        approve(contractAddress, newItemId);\n        return newItemId;\n    }\n    \n    function getLatestTokenId() public view returns (uint256) {\n        return _tokenIds.current();\n    }\n}\n\ncontract MintifyMarket is ReentrancyGuard {\n  using Counters for Counters.Counter;\n  Counters.Counter private _itemIds;\n  Counters.Counter private _itemsSold;\n\n  address payable owner;\n  uint256 listingPrice = 0.1 ether;\n\n  constructor() {\n    owner = payable(msg.sender);\n  }\n\n  struct MarketItem {\n    uint itemId;\n    address nftContract;\n    uint256 tokenId;\n    address payable seller;\n    address payable owner;\n    uint256 price;\n  }\n\n  mapping(uint256 => MarketItem) private idToMarketItem;\n\n  event MarketItemCreated (\n    uint indexed itemId,\n    address indexed nftContract,\n    uint256 indexed tokenId,\n    address seller,\n    address owner,\n    uint256 price\n  );\n\n  function getMarketItem(uint256 marketItemId) public view returns (MarketItem memory) {\n    return idToMarketItem[marketItemId];\n  }\n\n  \n\n  event Message (\n      address from,\n     uint256 tokenId  \n  );\n\n\n  function createMarketItem(\n    address nftContract,\n    uint256 tokenId,\n    uint256 price\n  ) public payable nonReentrant {\n    require(price > 0, \"Price must be at least 1 wei\");\n    // require(msg.value == listingPrice, \"Price must be equal to listing price\");\n\n    emit Message(msg.sender, tokenId);\n    _itemIds.increment();\n    uint256 itemId = _itemIds.current();\n  \n    IERC721(nftContract).transferFrom(msg.sender, address(this), tokenId);\n\n    idToMarketItem[itemId] =  MarketItem(\n      itemId,\n      nftContract,\n      tokenId,\n      payable(msg.sender),\n      payable(address(0)),\n      price\n    );\n\n\n    emit MarketItemCreated(\n      itemId,\n      nftContract,\n      tokenId,\n      msg.sender,\n      address(0),\n      price\n    );\n  }\n\n  function createMarketSale(\n    address nftContract,\n    uint256 itemId\n    ) public payable nonReentrant {\n    uint price = idToMarketItem[itemId].price;\n    uint tokenId = idToMarketItem[itemId].tokenId;\n    require(msg.value == price, \"Please submit the asking price in order to complete the purchase\");\n\n    idToMarketItem[itemId].seller.transfer(msg.value);\n    IERC721(nftContract).transferFrom(address(this), msg.sender, tokenId);\n    idToMarketItem[itemId].owner = payable(msg.sender);\n    _itemsSold.increment();\n    payable(owner).transfer(listingPrice);\n  }\n\n  function fetchMarketItems() public view returns (MarketItem[] memory) {\n    uint itemCount = _itemIds.current();\n    uint unsoldItemCount = _itemIds.current() - _itemsSold.current();\n    uint currentIndex = 0;\n\n    MarketItem[] memory items = new MarketItem[](unsoldItemCount);\n    for (uint i = 0; i < itemCount; i++) {\n      if (idToMarketItem[i + 1].owner == address(0)) {\n        uint currentId = i + 1;\n        MarketItem storage currentItem = idToMarketItem[currentId];\n        items[currentIndex] = currentItem;\n        currentIndex += 1;\n      }\n    }\n   \n    return items;\n  }\n\n  function fetchMyNFTs() public view returns (MarketItem[] memory) {\n    uint totalItemCount = _itemIds.current();\n    uint itemCount = 0;\n    uint currentIndex = 0;\n\n    for (uint i = 0; i < totalItemCount; i++) {\n      if (idToMarketItem[i + 1].owner == msg.sender) {\n        itemCount += 1;\n      }\n    }\n\n    MarketItem[] memory items = new MarketItem[](itemCount);\n    for (uint i = 0; i < totalItemCount; i++) {\n      if (idToMarketItem[i + 1].owner == msg.sender) {\n        uint currentId = i + 1;\n        MarketItem storage currentItem = idToMarketItem[currentId];\n        items[currentIndex] = currentItem;\n        currentIndex += 1;\n      }\n    }\n   \n    return items;\n  }\n}",
  "sourcePath": "/Users/osfy/Documents/Web3Projects/Mintify/contracts/Mintify.sol",
  "compiler": {
    "name": "solc",
    "version": "0.8.14+commit.80d49f37.Emscripten.clang"
  },
  "schemaVersion": "3.4.1",
  "updatedAt": "2022-05-22T14:22:49.958Z",
  "devdoc": {
    "kind": "dev",
    "methods": {},
    "version": 1
  },
  "userdoc": {
    "kind": "user",
    "methods": {},
    "version": 1
  }
}