{
  "contractName": "Mintify",
  "abi": [
    {
      "inputs": [],
      "stateMutability": "nonpayable",
      "type": "constructor"
    },
    {
      "anonymous": false,
      "inputs": [
        {
          "indexed": true,
          "internalType": "address",
          "name": "owner",
          "type": "address"
        },
        {
          "indexed": true,
          "internalType": "address",
          "name": "approved",
          "type": "address"
        },
        {
          "indexed": true,
          "internalType": "uint256",
          "name": "tokenId",
          "type": "uint256"
        }
      ],
      "name": "Approval",
      "type": "event"
    },
    {
      "anonymous": false,
      "inputs": [
        {
          "indexed": true,
          "internalType": "address",
          "name": "owner",
          "type": "address"
        },
        {
          "indexed": true,
          "internalType": "address",
          "name": "operator",
          "type": "address"
        },
        {
          "indexed": false,
          "internalType": "bool",
          "name": "approved",
          "type": "bool"
        }
      ],
      "name": "ApprovalForAll",
      "type": "event"
    },
    {
      "anonymous": false,
      "inputs": [
        {
          "indexed": true,
          "internalType": "address",
          "name": "from",
          "type": "address"
        },
        {
          "indexed": true,
          "internalType": "address",
          "name": "to",
          "type": "address"
        },
        {
          "indexed": true,
          "internalType": "uint256",
          "name": "tokenId",
          "type": "uint256"
        }
      ],
      "name": "Transfer",
      "type": "event"
    },
    {
      "inputs": [
        {
          "internalType": "address",
          "name": "to",
          "type": "address"
        },
        {
          "internalType": "uint256",
          "name": "tokenId",
          "type": "uint256"
        }
      ],
      "name": "approve",
      "outputs": [],
      "stateMutability": "nonpayable",
      "type": "function"
    },
    {
      "inputs": [
        {
          "internalType": "address",
          "name": "owner",
          "type": "address"
        }
      ],
      "name": "balanceOf",
      "outputs": [
        {
          "internalType": "uint256",
          "name": "",
          "type": "uint256"
        }
      ],
      "stateMutability": "view",
      "type": "function"
    },
    {
      "inputs": [
        {
          "internalType": "uint256",
          "name": "tokenId",
          "type": "uint256"
        }
      ],
      "name": "getApproved",
      "outputs": [
        {
          "internalType": "address",
          "name": "",
          "type": "address"
        }
      ],
      "stateMutability": "view",
      "type": "function"
    },
    {
      "inputs": [
        {
          "internalType": "address",
          "name": "owner",
          "type": "address"
        },
        {
          "internalType": "address",
          "name": "operator",
          "type": "address"
        }
      ],
      "name": "isApprovedForAll",
      "outputs": [
        {
          "internalType": "bool",
          "name": "",
          "type": "bool"
        }
      ],
      "stateMutability": "view",
      "type": "function"
    },
    {
      "inputs": [],
      "name": "name",
      "outputs": [
        {
          "internalType": "string",
          "name": "",
          "type": "string"
        }
      ],
      "stateMutability": "view",
      "type": "function"
    },
    {
      "inputs": [
        {
          "internalType": "uint256",
          "name": "tokenId",
          "type": "uint256"
        }
      ],
      "name": "ownerOf",
      "outputs": [
        {
          "internalType": "address",
          "name": "",
          "type": "address"
        }
      ],
      "stateMutability": "view",
      "type": "function"
    },
    {
      "inputs": [
        {
          "internalType": "address",
          "name": "from",
          "type": "address"
        },
        {
          "internalType": "address",
          "name": "to",
          "type": "address"
        },
        {
          "internalType": "uint256",
          "name": "tokenId",
          "type": "uint256"
        }
      ],
      "name": "safeTransferFrom",
      "outputs": [],
      "stateMutability": "nonpayable",
      "type": "function"
    },
    {
      "inputs": [
        {
          "internalType": "address",
          "name": "from",
          "type": "address"
        },
        {
          "internalType": "address",
          "name": "to",
          "type": "address"
        },
        {
          "internalType": "uint256",
          "name": "tokenId",
          "type": "uint256"
        },
        {
          "internalType": "bytes",
          "name": "_data",
          "type": "bytes"
        }
      ],
      "name": "safeTransferFrom",
      "outputs": [],
      "stateMutability": "nonpayable",
      "type": "function"
    },
    {
      "inputs": [
        {
          "internalType": "address",
          "name": "operator",
          "type": "address"
        },
        {
          "internalType": "bool",
          "name": "approved",
          "type": "bool"
        }
      ],
      "name": "setApprovalForAll",
      "outputs": [],
      "stateMutability": "nonpayable",
      "type": "function"
    },
    {
      "inputs": [
        {
          "internalType": "bytes4",
          "name": "interfaceId",
          "type": "bytes4"
        }
      ],
      "name": "supportsInterface",
      "outputs": [
        {
          "internalType": "bool",
          "name": "",
          "type": "bool"
        }
      ],
      "stateMutability": "view",
      "type": "function"
    },
    {
      "inputs": [],
      "name": "symbol",
      "outputs": [
        {
          "internalType": "string",
          "name": "",
          "type": "string"
        }
      ],
      "stateMutability": "view",
      "type": "function"
    },
    {
      "inputs": [
        {
          "internalType": "uint256",
          "name": "tokenId",
          "type": "uint256"
        }
      ],
      "name": "tokenURI",
      "outputs": [
        {
          "internalType": "string",
          "name": "",
          "type": "string"
        }
      ],
      "stateMutability": "view",
      "type": "function"
    },
    {
      "inputs": [
        {
          "internalType": "address",
          "name": "from",
          "type": "address"
        },
        {
          "internalType": "address",
          "name": "to",
          "type": "address"
        },
        {
          "internalType": "uint256",
          "name": "tokenId",
          "type": "uint256"
        }
      ],
      "name": "transferFrom",
      "outputs": [],
      "stateMutability": "nonpayable",
      "type": "function"
    },
    {
      "inputs": [
        {
          "internalType": "address",
          "name": "marketplaceAddress",
          "type": "address"
        },
        {
          "internalType": "string",
          "name": "tokenURI",
          "type": "string"
        }
      ],
      "name": "createToken",
      "outputs": [
        {
          "internalType": "uint256",
          "name": "",
          "type": "uint256"
        }
      ],
      "stateMutability": "nonpayable",
      "type": "function"
    },
    {
      "inputs": [],
      "name": "getLatestTokenId",
      "outputs": [
        {
          "internalType": "uint256",
          "name": "",
          "type": "uint256"
        }
      ],
      "stateMutability": "view",
      "type": "function"
    }
  ],
  "bytecode": "0x60806040523480156200001157600080fd5b506040518060400160405280600781526020017f4d696e74696679000000000000000000000000000000000000000000000000008152506040518060400160405280600781526020017f4d494e5449465900000000000000000000000000000000000000000000000000815250816000908051906020019062000096929190620000b8565b508060019080519060200190620000af929190620000b8565b505050620001cc565b828054620000c69062000197565b90600052602060002090601f016020900481019282620000ea576000855562000136565b82601f106200010557805160ff191683800117855562000136565b8280016001018555821562000136579182015b828111156200013557825182559160200191906001019062000118565b5b50905062000145919062000149565b5090565b5b80821115620001645760008160009055506001016200014a565b5090565b7f4e487b7100000000000000000000000000000000000000000000000000000000600052602260045260246000fd5b60006002820490506001821680620001b057607f821691505b602082108103620001c657620001c562000168565b5b50919050565b612c3080620001dc6000396000f3fe608060405234801561001057600080fd5b50600436106100f55760003560e01c806342842e0e11610097578063a22cb46511610066578063a22cb46514610298578063b88d4fde146102b4578063c87b56dd146102d0578063e985e9c514610300576100f5565b806342842e0e146101fe5780636352211e1461021a57806370a082311461024a57806395d89b411461027a576100f5565b8063081812fc116100d3578063081812fc14610178578063095ea7b3146101a857806323b872dd146101c457806325d112a9146101e0576100f5565b806301382807146100fa57806301ffc9a71461012a57806306fdde031461015a575b600080fd5b610114600480360381019061010f9190611ae0565b610330565b6040516101219190611b55565b60405180910390f35b610144600480360381019061013f9190611bc8565b6103d5565b6040516101519190611c10565b60405180910390f35b6101626104b7565b60405161016f9190611cb3565b60405180910390f35b610192600480360381019061018d9190611d01565b610549565b60405161019f9190611d3d565b60405180910390f35b6101c260048036038101906101bd9190611d58565b6105ce565b005b6101de60048036038101906101d99190611d98565b6106e5565b005b6101e8610745565b6040516101f59190611b55565b60405180910390f35b61021860048036038101906102139190611d98565b610756565b005b610234600480360381019061022f9190611d01565b610776565b6040516102419190611d3d565b60405180910390f35b610264600480360381019061025f9190611deb565b610827565b6040516102719190611b55565b60405180910390f35b6102826108de565b60405161028f9190611cb3565b60405180910390f35b6102b260048036038101906102ad9190611e44565b610970565b005b6102ce60048036038101906102c99190611f25565b610af0565b005b6102ea60048036038101906102e59190611d01565b610b52565b6040516102f79190611cb3565b60405180910390f35b61031a60048036038101906103159190611fa8565b610ca3565b6040516103279190611c10565b60405180910390f35b600082600860006101000a81548173ffffffffffffffffffffffffffffffffffffffff021916908373ffffffffffffffffffffffffffffffffffffffff16021790555061037d6007610d37565b60006103896007610d4d565b90506103953382610d5b565b61039f8184610f28565b6103cb600860009054906101000a900473ffffffffffffffffffffffffffffffffffffffff16826105ce565b8091505092915050565b60007f80ac58cd000000000000000000000000000000000000000000000000000000007bffffffffffffffffffffffffffffffffffffffffffffffffffffffff1916827bffffffffffffffffffffffffffffffffffffffffffffffffffffffff191614806104a057507f5b5e139f000000000000000000000000000000000000000000000000000000007bffffffffffffffffffffffffffffffffffffffffffffffffffffffff1916827bffffffffffffffffffffffffffffffffffffffffffffffffffffffff1916145b806104b057506104af82610f9c565b5b9050919050565b6060600080546104c690612017565b80601f01602080910402602001604051908101604052809291908181526020018280546104f290612017565b801561053f5780601f106105145761010080835404028352916020019161053f565b820191906000526020600020905b81548152906001019060200180831161052257829003601f168201915b5050505050905090565b600061055482611006565b610593576040517f08c379a000000000000000000000000000000000000000000000000000000000815260040161058a906120ba565b60405180910390fd5b6004600083815260200190815260200160002060009054906101000a900473ffffffffffffffffffffffffffffffffffffffff169050919050565b60006105d982610776565b90508073ffffffffffffffffffffffffffffffffffffffff168373ffffffffffffffffffffffffffffffffffffffff1603610649576040517f08c379a00000000000000000000000000000000000000000000000000000000081526004016106409061214c565b60405180910390fd5b8073ffffffffffffffffffffffffffffffffffffffff16610668611072565b73ffffffffffffffffffffffffffffffffffffffff161480610697575061069681610691611072565b610ca3565b5b6106d6576040517f08c379a00000000000000000000000000000000000000000000000000000000081526004016106cd906121de565b60405180910390fd5b6106e0838361107a565b505050565b6106f66106f0611072565b82611133565b610735576040517f08c379a000000000000000000000000000000000000000000000000000000000815260040161072c90612270565b60405180910390fd5b610740838383611211565b505050565b60006107516007610d4d565b905090565b61077183838360405180602001604052806000815250610af0565b505050565b6000806002600084815260200190815260200160002060009054906101000a900473ffffffffffffffffffffffffffffffffffffffff169050600073ffffffffffffffffffffffffffffffffffffffff168173ffffffffffffffffffffffffffffffffffffffff160361081e576040517f08c379a000000000000000000000000000000000000000000000000000000000815260040161081590612302565b60405180910390fd5b80915050919050565b60008073ffffffffffffffffffffffffffffffffffffffff168273ffffffffffffffffffffffffffffffffffffffff1603610897576040517f08c379a000000000000000000000000000000000000000000000000000000000815260040161088e90612394565b60405180910390fd5b600360008373ffffffffffffffffffffffffffffffffffffffff1673ffffffffffffffffffffffffffffffffffffffff168152602001908152602001600020549050919050565b6060600180546108ed90612017565b80601f016020809104026020016040519081016040528092919081815260200182805461091990612017565b80156109665780601f1061093b57610100808354040283529160200191610966565b820191906000526020600020905b81548152906001019060200180831161094957829003601f168201915b5050505050905090565b610978611072565b73ffffffffffffffffffffffffffffffffffffffff168273ffffffffffffffffffffffffffffffffffffffff16036109e5576040517f08c379a00000000000000000000000000000000000000000000000000000000081526004016109dc90612400565b60405180910390fd5b80600560006109f2611072565b73ffffffffffffffffffffffffffffffffffffffff1673ffffffffffffffffffffffffffffffffffffffff16815260200190815260200160002060008473ffffffffffffffffffffffffffffffffffffffff1673ffffffffffffffffffffffffffffffffffffffff16815260200190815260200160002060006101000a81548160ff0219169083151502179055508173ffffffffffffffffffffffffffffffffffffffff16610a9f611072565b73ffffffffffffffffffffffffffffffffffffffff167f17307eab39ab6107e8899845ad3d59bd9653f200f220920489ca2b5937696c3183604051610ae49190611c10565b60405180910390a35050565b610b01610afb611072565b83611133565b610b40576040517f08c379a0000000000000000000000000000000000000000000000000000000008152600401610b3790612270565b60405180910390fd5b610b4c8484848461146c565b50505050565b6060610b5d82611006565b610b9c576040517f08c379a0000000000000000000000000000000000000000000000000000000008152600401610b9390612492565b60405180910390fd5b6000600660008481526020019081526020016000208054610bbc90612017565b80601f0160208091040260200160405190810160405280929190818152602001828054610be890612017565b8015610c355780601f10610c0a57610100808354040283529160200191610c35565b820191906000526020600020905b815481529060010190602001808311610c1857829003601f168201915b505050505090506000610c466114c8565b90506000815103610c5b578192505050610c9e565b600082511115610c90578082604051602001610c789291906124ee565b60405160208183030381529060405292505050610c9e565b610c99846114df565b925050505b919050565b6000600560008473ffffffffffffffffffffffffffffffffffffffff1673ffffffffffffffffffffffffffffffffffffffff16815260200190815260200160002060008373ffffffffffffffffffffffffffffffffffffffff1673ffffffffffffffffffffffffffffffffffffffff16815260200190815260200160002060009054906101000a900460ff16905092915050565b6001816000016000828254019250508190555050565b600081600001549050919050565b600073ffffffffffffffffffffffffffffffffffffffff168273ffffffffffffffffffffffffffffffffffffffff1603610dca576040517f08c379a0000000000000000000000000000000000000000000000000000000008152600401610dc19061255e565b60405180910390fd5b610dd381611006565b15610e13576040517f08c379a0000000000000000000000000000000000000000000000000000000008152600401610e0a906125ca565b60405180910390fd5b610e1f60008383611586565b6001600360008473ffffffffffffffffffffffffffffffffffffffff1673ffffffffffffffffffffffffffffffffffffffff1681526020019081526020016000206000828254610e6f9190612619565b92505081905550816002600083815260200190815260200160002060006101000a81548173ffffffffffffffffffffffffffffffffffffffff021916908373ffffffffffffffffffffffffffffffffffffffff160217905550808273ffffffffffffffffffffffffffffffffffffffff16600073ffffffffffffffffffffffffffffffffffffffff167fddf252ad1be2c89b69c2b068fc378daa952ba7f163c4a11628f55a4df523b3ef60405160405180910390a45050565b610f3182611006565b610f70576040517f08c379a0000000000000000000000000000000000000000000000000000000008152600401610f67906126e1565b60405180910390fd5b80600660008481526020019081526020016000209080519060200190610f97929190611885565b505050565b60007f01ffc9a7000000000000000000000000000000000000000000000000000000007bffffffffffffffffffffffffffffffffffffffffffffffffffffffff1916827bffffffffffffffffffffffffffffffffffffffffffffffffffffffff1916149050919050565b60008073ffffffffffffffffffffffffffffffffffffffff166002600084815260200190815260200160002060009054906101000a900473ffffffffffffffffffffffffffffffffffffffff1673ffffffffffffffffffffffffffffffffffffffff1614159050919050565b600033905090565b816004600083815260200190815260200160002060006101000a81548173ffffffffffffffffffffffffffffffffffffffff021916908373ffffffffffffffffffffffffffffffffffffffff160217905550808273ffffffffffffffffffffffffffffffffffffffff166110ed83610776565b73ffffffffffffffffffffffffffffffffffffffff167f8c5be1e5ebec7d5bd14f71427d1e84f3dd0314c0f7b2291e5b200ac8c7c3b92560405160405180910390a45050565b600061113e82611006565b61117d576040517f08c379a000000000000000000000000000000000000000000000000000000000815260040161117490612773565b60405180910390fd5b600061118883610776565b90508073ffffffffffffffffffffffffffffffffffffffff168473ffffffffffffffffffffffffffffffffffffffff1614806111f757508373ffffffffffffffffffffffffffffffffffffffff166111df84610549565b73ffffffffffffffffffffffffffffffffffffffff16145b8061120857506112078185610ca3565b5b91505092915050565b8273ffffffffffffffffffffffffffffffffffffffff1661123182610776565b73ffffffffffffffffffffffffffffffffffffffff1614611287576040517f08c379a000000000000000000000000000000000000000000000000000000000815260040161127e90612805565b60405180910390fd5b600073ffffffffffffffffffffffffffffffffffffffff168273ffffffffffffffffffffffffffffffffffffffff16036112f6576040517f08c379a00000000000000000000000000000000000000000000000000000000081526004016112ed90612897565b60405180910390fd5b611301838383611586565b61130c60008261107a565b6001600360008573ffffffffffffffffffffffffffffffffffffffff1673ffffffffffffffffffffffffffffffffffffffff168152602001908152602001600020600082825461135c91906128b7565b925050819055506001600360008473ffffffffffffffffffffffffffffffffffffffff1673ffffffffffffffffffffffffffffffffffffffff16815260200190815260200160002060008282546113b39190612619565b92505081905550816002600083815260200190815260200160002060006101000a81548173ffffffffffffffffffffffffffffffffffffffff021916908373ffffffffffffffffffffffffffffffffffffffff160217905550808273ffffffffffffffffffffffffffffffffffffffff168473ffffffffffffffffffffffffffffffffffffffff167fddf252ad1be2c89b69c2b068fc378daa952ba7f163c4a11628f55a4df523b3ef60405160405180910390a4505050565b611477848484611211565b6114838484848461158b565b6114c2576040517f08c379a00000000000000000000000000000000000000000000000000000000081526004016114b99061295d565b60405180910390fd5b50505050565b606060405180602001604052806000815250905090565b60606114ea82611006565b611529576040517f08c379a0000000000000000000000000000000000000000000000000000000008152600401611520906129ef565b60405180910390fd5b60006115336114c8565b90506000815111611553576040518060200160405280600081525061157e565b8061155d84611712565b60405160200161156e9291906124ee565b6040516020818303038152906040525b915050919050565b505050565b60006115ac8473ffffffffffffffffffffffffffffffffffffffff16611872565b15611705578373ffffffffffffffffffffffffffffffffffffffff1663150b7a026115d5611072565b8786866040518563ffffffff1660e01b81526004016115f79493929190612a64565b6020604051808303816000875af192505050801561163357506040513d601f19601f820116820180604052508101906116309190612ac5565b60015b6116b5573d8060008114611663576040519150601f19603f3d011682016040523d82523d6000602084013e611668565b606091505b5060008151036116ad576040517f08c379a00000000000000000000000000000000000000000000000000000000081526004016116a49061295d565b60405180910390fd5b805181602001fd5b63150b7a0260e01b7bffffffffffffffffffffffffffffffffffffffffffffffffffffffff1916817bffffffffffffffffffffffffffffffffffffffffffffffffffffffff19161491505061170a565b600190505b949350505050565b606060008203611759576040518060400160405280600181526020017f3000000000000000000000000000000000000000000000000000000000000000815250905061186d565b600082905060005b6000821461178b57808061177490612af2565b915050600a826117849190612b69565b9150611761565b60008167ffffffffffffffff8111156117a7576117a66119b5565b5b6040519080825280601f01601f1916602001820160405280156117d95781602001600182028036833780820191505090505b5090505b60008514611866576001826117f291906128b7565b9150600a856118019190612b9a565b603061180d9190612619565b60f81b81838151811061182357611822612bcb565b5b60200101907effffffffffffffffffffffffffffffffffffffffffffffffffffffffffffff1916908160001a905350600a8561185f9190612b69565b94506117dd565b8093505050505b919050565b600080823b905060008111915050919050565b82805461189190612017565b90600052602060002090601f0160209004810192826118b357600085556118fa565b82601f106118cc57805160ff19168380011785556118fa565b828001600101855582156118fa579182015b828111156118f95782518255916020019190600101906118de565b5b509050611907919061190b565b5090565b5b8082111561192457600081600090555060010161190c565b5090565b6000604051905090565b600080fd5b600080fd5b600073ffffffffffffffffffffffffffffffffffffffff82169050919050565b60006119678261193c565b9050919050565b6119778161195c565b811461198257600080fd5b50565b6000813590506119948161196e565b92915050565b600080fd5b600080fd5b6000601f19601f8301169050919050565b7f4e487b7100000000000000000000000000000000000000000000000000000000600052604160045260246000fd5b6119ed826119a4565b810181811067ffffffffffffffff82111715611a0c57611a0b6119b5565b5b80604052505050565b6000611a1f611928565b9050611a2b82826119e4565b919050565b600067ffffffffffffffff821115611a4b57611a4a6119b5565b5b611a54826119a4565b9050602081019050919050565b82818337600083830152505050565b6000611a83611a7e84611a30565b611a15565b905082815260208101848484011115611a9f57611a9e61199f565b5b611aaa848285611a61565b509392505050565b600082601f830112611ac757611ac661199a565b5b8135611ad7848260208601611a70565b91505092915050565b60008060408385031215611af757611af6611932565b5b6000611b0585828601611985565b925050602083013567ffffffffffffffff811115611b2657611b25611937565b5b611b3285828601611ab2565b9150509250929050565b6000819050919050565b611b4f81611b3c565b82525050565b6000602082019050611b6a6000830184611b46565b92915050565b60007fffffffff0000000000000000000000000000000000000000000000000000000082169050919050565b611ba581611b70565b8114611bb057600080fd5b50565b600081359050611bc281611b9c565b92915050565b600060208284031215611bde57611bdd611932565b5b6000611bec84828501611bb3565b91505092915050565b60008115159050919050565b611c0a81611bf5565b82525050565b6000602082019050611c256000830184611c01565b92915050565b600081519050919050565b600082825260208201905092915050565b60005b83811015611c65578082015181840152602081019050611c4a565b83811115611c74576000848401525b50505050565b6000611c8582611c2b565b611c8f8185611c36565b9350611c9f818560208601611c47565b611ca8816119a4565b840191505092915050565b60006020820190508181036000830152611ccd8184611c7a565b905092915050565b611cde81611b3c565b8114611ce957600080fd5b50565b600081359050611cfb81611cd5565b92915050565b600060208284031215611d1757611d16611932565b5b6000611d2584828501611cec565b91505092915050565b611d378161195c565b82525050565b6000602082019050611d526000830184611d2e565b92915050565b60008060408385031215611d6f57611d6e611932565b5b6000611d7d85828601611985565b9250506020611d8e85828601611cec565b9150509250929050565b600080600060608486031215611db157611db0611932565b5b6000611dbf86828701611985565b9350506020611dd086828701611985565b9250506040611de186828701611cec565b9150509250925092565b600060208284031215611e0157611e00611932565b5b6000611e0f84828501611985565b91505092915050565b611e2181611bf5565b8114611e2c57600080fd5b50565b600081359050611e3e81611e18565b92915050565b60008060408385031215611e5b57611e5a611932565b5b6000611e6985828601611985565b9250506020611e7a85828601611e2f565b9150509250929050565b600067ffffffffffffffff821115611e9f57611e9e6119b5565b5b611ea8826119a4565b9050602081019050919050565b6000611ec8611ec384611e84565b611a15565b905082815260208101848484011115611ee457611ee361199f565b5b611eef848285611a61565b509392505050565b600082601f830112611f0c57611f0b61199a565b5b8135611f1c848260208601611eb5565b91505092915050565b60008060008060808587031215611f3f57611f3e611932565b5b6000611f4d87828801611985565b9450506020611f5e87828801611985565b9350506040611f6f87828801611cec565b925050606085013567ffffffffffffffff811115611f9057611f8f611937565b5b611f9c87828801611ef7565b91505092959194509250565b60008060408385031215611fbf57611fbe611932565b5b6000611fcd85828601611985565b9250506020611fde85828601611985565b9150509250929050565b7f4e487b7100000000000000000000000000000000000000000000000000000000600052602260045260246000fd5b6000600282049050600182168061202f57607f821691505b60208210810361204257612041611fe8565b5b50919050565b7f4552433732313a20617070726f76656420717565727920666f72206e6f6e657860008201527f697374656e7420746f6b656e0000000000000000000000000000000000000000602082015250565b60006120a4602c83611c36565b91506120af82612048565b604082019050919050565b600060208201905081810360008301526120d381612097565b9050919050565b7f4552433732313a20617070726f76616c20746f2063757272656e74206f776e6560008201527f7200000000000000000000000000000000000000000000000000000000000000602082015250565b6000612136602183611c36565b9150612141826120da565b604082019050919050565b6000602082019050818103600083015261216581612129565b9050919050565b7f4552433732313a20617070726f76652063616c6c6572206973206e6f74206f7760008201527f6e6572206e6f7220617070726f76656420666f7220616c6c0000000000000000602082015250565b60006121c8603883611c36565b91506121d38261216c565b604082019050919050565b600060208201905081810360008301526121f7816121bb565b9050919050565b7f4552433732313a207472616e736665722063616c6c6572206973206e6f74206f60008201527f776e6572206e6f7220617070726f766564000000000000000000000000000000602082015250565b600061225a603183611c36565b9150612265826121fe565b604082019050919050565b600060208201905081810360008301526122898161224d565b9050919050565b7f4552433732313a206f776e657220717565727920666f72206e6f6e657869737460008201527f656e7420746f6b656e0000000000000000000000000000000000000000000000602082015250565b60006122ec602983611c36565b91506122f782612290565b604082019050919050565b6000602082019050818103600083015261231b816122df565b9050919050565b7f4552433732313a2062616c616e636520717565727920666f7220746865207a6560008201527f726f206164647265737300000000000000000000000000000000000000000000602082015250565b600061237e602a83611c36565b915061238982612322565b604082019050919050565b600060208201905081810360008301526123ad81612371565b9050919050565b7f4552433732313a20617070726f766520746f2063616c6c657200000000000000600082015250565b60006123ea601983611c36565b91506123f5826123b4565b602082019050919050565b60006020820190508181036000830152612419816123dd565b9050919050565b7f45524337323155524953746f726167653a2055524920717565727920666f722060008201527f6e6f6e6578697374656e7420746f6b656e000000000000000000000000000000602082015250565b600061247c603183611c36565b915061248782612420565b604082019050919050565b600060208201905081810360008301526124ab8161246f565b9050919050565b600081905092915050565b60006124c882611c2b565b6124d281856124b2565b93506124e2818560208601611c47565b80840191505092915050565b60006124fa82856124bd565b915061250682846124bd565b91508190509392505050565b7f4552433732313a206d696e7420746f20746865207a65726f2061646472657373600082015250565b6000612548602083611c36565b915061255382612512565b602082019050919050565b600060208201905081810360008301526125778161253b565b9050919050565b7f4552433732313a20746f6b656e20616c7265616479206d696e74656400000000600082015250565b60006125b4601c83611c36565b91506125bf8261257e565b602082019050919050565b600060208201905081810360008301526125e3816125a7565b9050919050565b7f4e487b7100000000000000000000000000000000000000000000000000000000600052601160045260246000fd5b600061262482611b3c565b915061262f83611b3c565b9250827fffffffffffffffffffffffffffffffffffffffffffffffffffffffffffffffff03821115612664576126636125ea565b5b828201905092915050565b7f45524337323155524953746f726167653a2055524920736574206f66206e6f6e60008201527f6578697374656e7420746f6b656e000000000000000000000000000000000000602082015250565b60006126cb602e83611c36565b91506126d68261266f565b604082019050919050565b600060208201905081810360008301526126fa816126be565b9050919050565b7f4552433732313a206f70657261746f7220717565727920666f72206e6f6e657860008201527f697374656e7420746f6b656e0000000000000000000000000000000000000000602082015250565b600061275d602c83611c36565b915061276882612701565b604082019050919050565b6000602082019050818103600083015261278c81612750565b9050919050565b7f4552433732313a207472616e73666572206f6620746f6b656e2074686174206960008201527f73206e6f74206f776e0000000000000000000000000000000000000000000000602082015250565b60006127ef602983611c36565b91506127fa82612793565b604082019050919050565b6000602082019050818103600083015261281e816127e2565b9050919050565b7f4552433732313a207472616e7366657220746f20746865207a65726f2061646460008201527f7265737300000000000000000000000000000000000000000000000000000000602082015250565b6000612881602483611c36565b915061288c82612825565b604082019050919050565b600060208201905081810360008301526128b081612874565b9050919050565b60006128c282611b3c565b91506128cd83611b3c565b9250828210156128e0576128df6125ea565b5b828203905092915050565b7f4552433732313a207472616e7366657220746f206e6f6e20455243373231526560008201527f63656976657220696d706c656d656e7465720000000000000000000000000000602082015250565b6000612947603283611c36565b9150612952826128eb565b604082019050919050565b600060208201905081810360008301526129768161293a565b9050919050565b7f4552433732314d657461646174613a2055524920717565727920666f72206e6f60008201527f6e6578697374656e7420746f6b656e0000000000000000000000000000000000602082015250565b60006129d9602f83611c36565b91506129e48261297d565b604082019050919050565b60006020820190508181036000830152612a08816129cc565b9050919050565b600081519050919050565b600082825260208201905092915050565b6000612a3682612a0f565b612a408185612a1a565b9350612a50818560208601611c47565b612a59816119a4565b840191505092915050565b6000608082019050612a796000830187611d2e565b612a866020830186611d2e565b612a936040830185611b46565b8181036060830152612aa58184612a2b565b905095945050505050565b600081519050612abf81611b9c565b92915050565b600060208284031215612adb57612ada611932565b5b6000612ae984828501612ab0565b91505092915050565b6000612afd82611b3c565b91507fffffffffffffffffffffffffffffffffffffffffffffffffffffffffffffffff8203612b2f57612b2e6125ea565b5b600182019050919050565b7f4e487b7100000000000000000000000000000000000000000000000000000000600052601260045260246000fd5b6000612b7482611b3c565b9150612b7f83611b3c565b925082612b8f57612b8e612b3a565b5b828204905092915050565b6000612ba582611b3c565b9150612bb083611b3c565b925082612bc057612bbf612b3a565b5b828206905092915050565b7f4e487b7100000000000000000000000000000000000000000000000000000000600052603260045260246000fdfea2646970667358221220db526a5f345a018593349d37884decbc12fa35df2effb05561b675c38833e5fe64736f6c634300080e0033",
  "immutableReferences": {},
  "source": "pragma solidity ^0.8.0;\n\nimport \"@openzeppelin/contracts/utils/Counters.sol\";\nimport \"@openzeppelin/contracts/token/ERC721/extensions/ERC721URIStorage.sol\";\nimport \"@openzeppelin/contracts/security/ReentrancyGuard.sol\";\nimport \"@openzeppelin/contracts/token/ERC721/ERC721.sol\";\n\ncontract Mintify is ERC721URIStorage {\n    using Counters for Counters.Counter;\n    Counters.Counter private _tokenIds;\n    address contractAddress;\n\n    constructor() ERC721(\"Mintify\", \"MINTIFY\") {\n    }\n\n    function createToken(address marketplaceAddress, string memory tokenURI) public returns (uint) {\n        contractAddress = marketplaceAddress;\n        _tokenIds.increment();\n        uint256 newItemId = _tokenIds.current();\n\n        _mint(msg.sender, newItemId);\n        _setTokenURI(newItemId, tokenURI);\n        approve(contractAddress, newItemId);\n        return newItemId;\n    }\n    \n    function getLatestTokenId() public view returns (uint256) {\n        return _tokenIds.current();\n    }\n}\n\ncontract MintifyMarket is ReentrancyGuard {\n  using Counters for Counters.Counter;\n  Counters.Counter private _itemIds;\n  Counters.Counter private _itemsSold;\n\n  address payable owner;\n  uint256 listingPrice = 0.1 ether;\n\n  constructor() {\n    owner = payable(msg.sender);\n  }\n\n  struct MarketItem {\n    uint itemId;\n    address nftContract;\n    uint256 tokenId;\n    address payable seller;\n    address payable owner;\n    uint256 price;\n  }\n\n  mapping(uint256 => MarketItem) private idToMarketItem;\n\n  event MarketItemCreated (\n    uint indexed itemId,\n    address indexed nftContract,\n    uint256 indexed tokenId,\n    address seller,\n    address owner,\n    uint256 price\n  );\n\n  function getMarketItem(uint256 marketItemId) public view returns (MarketItem memory) {\n    return idToMarketItem[marketItemId];\n  }\n\n  \n\n  event Message (\n      address from,\n     uint256 tokenId  \n  );\n\n\n  function createMarketItem(\n    address nftContract,\n    uint256 tokenId,\n    uint256 price\n  ) public payable nonReentrant {\n    require(price > 0, \"Price must be at least 1 wei\");\n    // require(msg.value == listingPrice, \"Price must be equal to listing price\");\n\n    emit Message(msg.sender, tokenId);\n    _itemIds.increment();\n    uint256 itemId = _itemIds.current();\n  \n    IERC721(nftContract).transferFrom(msg.sender, address(this), tokenId);\n\n    idToMarketItem[itemId] =  MarketItem(\n      itemId,\n      nftContract,\n      tokenId,\n      payable(msg.sender),\n      payable(address(0)),\n      price\n    );\n\n\n    emit MarketItemCreated(\n      itemId,\n      nftContract,\n      tokenId,\n      msg.sender,\n      address(0),\n      price\n    );\n  }\n\n  function createMarketSale(\n    address nftContract,\n    uint256 itemId\n    ) public payable nonReentrant {\n    uint price = idToMarketItem[itemId].price;\n    uint tokenId = idToMarketItem[itemId].tokenId;\n    require(msg.value == price, \"Please submit the asking price in order to complete the purchase\");\n\n    idToMarketItem[itemId].seller.transfer(msg.value);\n    IERC721(nftContract).transferFrom(address(this), msg.sender, tokenId);\n    idToMarketItem[itemId].owner = payable(msg.sender);\n    _itemsSold.increment();\n    payable(owner).transfer(listingPrice);\n  }\n\n  function fetchMarketItems() public view returns (MarketItem[] memory) {\n    uint itemCount = _itemIds.current();\n    uint unsoldItemCount = _itemIds.current() - _itemsSold.current();\n    uint currentIndex = 0;\n\n    MarketItem[] memory items = new MarketItem[](unsoldItemCount);\n    for (uint i = 0; i < itemCount; i++) {\n      if (idToMarketItem[i + 1].owner == address(0)) {\n        uint currentId = i + 1;\n        MarketItem storage currentItem = idToMarketItem[currentId];\n        items[currentIndex] = currentItem;\n        currentIndex += 1;\n      }\n    }\n   \n    return items;\n  }\n\n  function fetchMyNFTs() public view returns (MarketItem[] memory) {\n    uint totalItemCount = _itemIds.current();\n    uint itemCount = 0;\n    uint currentIndex = 0;\n\n    for (uint i = 0; i < totalItemCount; i++) {\n      if (idToMarketItem[i + 1].owner == msg.sender) {\n        itemCount += 1;\n      }\n    }\n\n    MarketItem[] memory items = new MarketItem[](itemCount);\n    for (uint i = 0; i < totalItemCount; i++) {\n      if (idToMarketItem[i + 1].owner == msg.sender) {\n        uint currentId = i + 1;\n        MarketItem storage currentItem = idToMarketItem[currentId];\n        items[currentIndex] = currentItem;\n        currentIndex += 1;\n      }\n    }\n   \n    return items;\n  }\n}",
  "sourcePath": "/Users/osfy/Documents/Web3Projects/Mintify/contracts/Mintify.sol",
  "compiler": {
    "name": "solc",
    "version": "0.8.14+commit.80d49f37.Emscripten.clang"
  },
  "schemaVersion": "3.4.1",
  "updatedAt": "2022-05-22T14:22:49.951Z",
  "devdoc": {
    "kind": "dev",
    "methods": {
      "approve(address,uint256)": {
        "details": "See {IERC721-approve}."
      },
      "balanceOf(address)": {
        "details": "See {IERC721-balanceOf}."
      },
      "getApproved(uint256)": {
        "details": "See {IERC721-getApproved}."
      },
      "isApprovedForAll(address,address)": {
        "details": "See {IERC721-isApprovedForAll}."
      },
      "name()": {
        "details": "See {IERC721Metadata-name}."
      },
      "ownerOf(uint256)": {
        "details": "See {IERC721-ownerOf}."
      },
      "safeTransferFrom(address,address,uint256)": {
        "details": "See {IERC721-safeTransferFrom}."
      },
      "safeTransferFrom(address,address,uint256,bytes)": {
        "details": "See {IERC721-safeTransferFrom}."
      },
      "setApprovalForAll(address,bool)": {
        "details": "See {IERC721-setApprovalForAll}."
      },
      "supportsInterface(bytes4)": {
        "details": "See {IERC165-supportsInterface}."
      },
      "symbol()": {
        "details": "See {IERC721Metadata-symbol}."
      },
      "tokenURI(uint256)": {
        "details": "See {IERC721Metadata-tokenURI}."
      },
      "transferFrom(address,address,uint256)": {
        "details": "See {IERC721-transferFrom}."
      }
    },
    "version": 1
  },
  "userdoc": {
    "kind": "user",
    "methods": {},
    "version": 1
  }
}